{
  "_format": "hh-sol-artifact-1",
  "contractName": "NFTMarketplace",
  "sourceName": "contracts/NFTMarketplace.sol",
  "abi": [
    {
      "inputs": [],
      "stateMutability": "nonpayable",
      "type": "constructor"
    },
    {
      "anonymous": false,
      "inputs": [
        {
          "indexed": true,
          "internalType": "address",
          "name": "owner",
          "type": "address"
        },
        {
          "indexed": true,
          "internalType": "address",
          "name": "approved",
          "type": "address"
        },
        {
          "indexed": true,
          "internalType": "uint256",
          "name": "tokenId",
          "type": "uint256"
        }
      ],
      "name": "Approval",
      "type": "event"
    },
    {
      "anonymous": false,
      "inputs": [
        {
          "indexed": true,
          "internalType": "address",
          "name": "owner",
          "type": "address"
        },
        {
          "indexed": true,
          "internalType": "address",
          "name": "operator",
          "type": "address"
        },
        {
          "indexed": false,
          "internalType": "bool",
          "name": "approved",
          "type": "bool"
        }
      ],
      "name": "ApprovalForAll",
      "type": "event"
    },
    {
      "anonymous": false,
      "inputs": [
        {
          "indexed": true,
          "internalType": "address",
          "name": "from",
          "type": "address"
        },
        {
          "indexed": true,
          "internalType": "address",
          "name": "to",
          "type": "address"
        },
        {
          "indexed": true,
          "internalType": "uint256",
          "name": "tokenId",
          "type": "uint256"
        }
      ],
      "name": "Transfer",
      "type": "event"
    },
    {
      "anonymous": false,
      "inputs": [
        {
          "indexed": true,
          "internalType": "uint256",
          "name": "tokenId",
          "type": "uint256"
        },
        {
          "indexed": false,
          "internalType": "address",
          "name": "seller",
          "type": "address"
        },
        {
          "indexed": false,
          "internalType": "address",
          "name": "owner",
          "type": "address"
        },
        {
          "indexed": false,
          "internalType": "uint256",
          "name": "price",
          "type": "uint256"
        },
        {
          "indexed": false,
          "internalType": "bool",
          "name": "sold",
          "type": "bool"
        }
      ],
      "name": "idMarketItemCreated",
      "type": "event"
    },
    {
      "inputs": [
        {
          "internalType": "address",
          "name": "to",
          "type": "address"
        },
        {
          "internalType": "uint256",
          "name": "tokenId",
          "type": "uint256"
        }
      ],
      "name": "approve",
      "outputs": [],
      "stateMutability": "nonpayable",
      "type": "function"
    },
    {
      "inputs": [
        {
          "internalType": "address",
          "name": "owner",
          "type": "address"
        }
      ],
      "name": "balanceOf",
      "outputs": [
        {
          "internalType": "uint256",
          "name": "",
          "type": "uint256"
        }
      ],
      "stateMutability": "view",
      "type": "function"
    },
    {
      "inputs": [
        {
          "internalType": "uint256",
          "name": "tokenId",
          "type": "uint256"
        }
      ],
      "name": "createMarketSale",
      "outputs": [],
      "stateMutability": "payable",
      "type": "function"
    },
    {
      "inputs": [
        {
          "internalType": "string",
          "name": "tokenURI",
          "type": "string"
        },
        {
          "internalType": "uint256",
          "name": "price",
          "type": "uint256"
        }
      ],
      "name": "createToken",
      "outputs": [
        {
          "internalType": "uint256",
          "name": "",
          "type": "uint256"
        }
      ],
      "stateMutability": "payable",
      "type": "function"
    },
    {
      "inputs": [],
      "name": "fetchItemsListed",
      "outputs": [
        {
          "components": [
            {
              "internalType": "uint256",
              "name": "tokenId",
              "type": "uint256"
            },
            {
              "internalType": "address payable",
              "name": "seller",
              "type": "address"
            },
            {
              "internalType": "address payable",
              "name": "owner",
              "type": "address"
            },
            {
              "internalType": "uint256",
              "name": "price",
              "type": "uint256"
            },
            {
              "internalType": "bool",
              "name": "sold",
              "type": "bool"
            }
          ],
          "internalType": "struct NFTMarketplace.MarketItem[]",
          "name": "",
          "type": "tuple[]"
        }
      ],
      "stateMutability": "view",
      "type": "function"
    },
    {
      "inputs": [],
      "name": "fetchMarketItem",
      "outputs": [
        {
          "components": [
            {
              "internalType": "uint256",
              "name": "tokenId",
              "type": "uint256"
            },
            {
              "internalType": "address payable",
              "name": "seller",
              "type": "address"
            },
            {
              "internalType": "address payable",
              "name": "owner",
              "type": "address"
            },
            {
              "internalType": "uint256",
              "name": "price",
              "type": "uint256"
            },
            {
              "internalType": "bool",
              "name": "sold",
              "type": "bool"
            }
          ],
          "internalType": "struct NFTMarketplace.MarketItem[]",
          "name": "",
          "type": "tuple[]"
        }
      ],
      "stateMutability": "view",
      "type": "function"
    },
    {
      "inputs": [],
      "name": "fetchMyNFT",
      "outputs": [
        {
          "components": [
            {
              "internalType": "uint256",
              "name": "tokenId",
              "type": "uint256"
            },
            {
              "internalType": "address payable",
              "name": "seller",
              "type": "address"
            },
            {
              "internalType": "address payable",
              "name": "owner",
              "type": "address"
            },
            {
              "internalType": "uint256",
              "name": "price",
              "type": "uint256"
            },
            {
              "internalType": "bool",
              "name": "sold",
              "type": "bool"
            }
          ],
          "internalType": "struct NFTMarketplace.MarketItem[]",
          "name": "",
          "type": "tuple[]"
        }
      ],
      "stateMutability": "view",
      "type": "function"
    },
    {
      "inputs": [
        {
          "internalType": "uint256",
          "name": "tokenId",
          "type": "uint256"
        }
      ],
      "name": "getApproved",
      "outputs": [
        {
          "internalType": "address",
          "name": "",
          "type": "address"
        }
      ],
      "stateMutability": "view",
      "type": "function"
    },
    {
      "inputs": [],
      "name": "getListingPrice",
      "outputs": [
        {
          "internalType": "uint256",
          "name": "",
          "type": "uint256"
        }
      ],
      "stateMutability": "view",
      "type": "function"
    },
    {
      "inputs": [
        {
          "internalType": "address",
          "name": "owner",
          "type": "address"
        },
        {
          "internalType": "address",
          "name": "operator",
          "type": "address"
        }
      ],
      "name": "isApprovedForAll",
      "outputs": [
        {
          "internalType": "bool",
          "name": "",
          "type": "bool"
        }
      ],
      "stateMutability": "view",
      "type": "function"
    },
    {
      "inputs": [],
      "name": "name",
      "outputs": [
        {
          "internalType": "string",
          "name": "",
          "type": "string"
        }
      ],
      "stateMutability": "view",
      "type": "function"
    },
    {
      "inputs": [
        {
          "internalType": "uint256",
          "name": "tokenId",
          "type": "uint256"
        }
      ],
      "name": "ownerOf",
      "outputs": [
        {
          "internalType": "address",
          "name": "",
          "type": "address"
        }
      ],
      "stateMutability": "view",
      "type": "function"
    },
    {
      "inputs": [
        {
          "internalType": "uint256",
          "name": "tokenId",
          "type": "uint256"
        },
        {
          "internalType": "uint256",
          "name": "price",
          "type": "uint256"
        }
      ],
      "name": "reSellToken",
      "outputs": [],
      "stateMutability": "payable",
      "type": "function"
    },
    {
      "inputs": [
        {
          "internalType": "address",
          "name": "from",
          "type": "address"
        },
        {
          "internalType": "address",
          "name": "to",
          "type": "address"
        },
        {
          "internalType": "uint256",
          "name": "tokenId",
          "type": "uint256"
        }
      ],
      "name": "safeTransferFrom",
      "outputs": [],
      "stateMutability": "nonpayable",
      "type": "function"
    },
    {
      "inputs": [
        {
          "internalType": "address",
          "name": "from",
          "type": "address"
        },
        {
          "internalType": "address",
          "name": "to",
          "type": "address"
        },
        {
          "internalType": "uint256",
          "name": "tokenId",
          "type": "uint256"
        },
        {
          "internalType": "bytes",
          "name": "data",
          "type": "bytes"
        }
      ],
      "name": "safeTransferFrom",
      "outputs": [],
      "stateMutability": "nonpayable",
      "type": "function"
    },
    {
      "inputs": [
        {
          "internalType": "address",
          "name": "operator",
          "type": "address"
        },
        {
          "internalType": "bool",
          "name": "approved",
          "type": "bool"
        }
      ],
      "name": "setApprovalForAll",
      "outputs": [],
      "stateMutability": "nonpayable",
      "type": "function"
    },
    {
      "inputs": [
        {
          "internalType": "bytes4",
          "name": "interfaceId",
          "type": "bytes4"
        }
      ],
      "name": "supportsInterface",
      "outputs": [
        {
          "internalType": "bool",
          "name": "",
          "type": "bool"
        }
      ],
      "stateMutability": "view",
      "type": "function"
    },
    {
      "inputs": [],
      "name": "symbol",
      "outputs": [
        {
          "internalType": "string",
          "name": "",
          "type": "string"
        }
      ],
      "stateMutability": "view",
      "type": "function"
    },
    {
      "inputs": [
        {
          "internalType": "uint256",
          "name": "tokenId",
          "type": "uint256"
        }
      ],
      "name": "tokenURI",
      "outputs": [
        {
          "internalType": "string",
          "name": "",
          "type": "string"
        }
      ],
      "stateMutability": "view",
      "type": "function"
    },
    {
      "inputs": [
        {
          "internalType": "address",
          "name": "from",
          "type": "address"
        },
        {
          "internalType": "address",
          "name": "to",
          "type": "address"
        },
        {
          "internalType": "uint256",
          "name": "tokenId",
          "type": "uint256"
        }
      ],
      "name": "transferFrom",
      "outputs": [],
      "stateMutability": "nonpayable",
      "type": "function"
    },
    {
      "inputs": [
        {
          "internalType": "uint256",
          "name": "_listingPrice",
          "type": "uint256"
        }
      ],
      "name": "updateListingPrice",
      "outputs": [],
      "stateMutability": "payable",
      "type": "function"
    }
  ],
  "bytecode": "0x60806040526608e1bc9bf040006009553480156200001c57600080fd5b506040518060400160405280600381526020017f4e465400000000000000000000000000000000000000000000000000000000008152506040518060400160405280600281526020017f4d6f00000000000000000000000000000000000000000000000000000000000081525081600090816200009a919062000355565b508060019081620000ac919062000355565b5050503373ffffffffffffffffffffffffffffffffffffffff16600a60009054906101000a905050506200043c565b600081519050919050565b7f4e487b7100000000000000000000000000000000000000000000000000000000600052604160045260246000fd5b7f4e487b7100000000000000000000000000000000000000000000000000000000600052602260045260246000fd5b600060028204905060018216806200015d57607f821691505b60208210810362000173576200017262000115565b5b50919050565b60008190508160005260206000209050919050565b60006020601f8301049050919050565b600082821b905092915050565b600060088302620001dd7fffffffffffffffffffffffffffffffffffffffffffffffffffffffffffffffff826200019e565b620001e986836200019e565b95508019841693508086168417925050509392505050565b6000819050919050565b6000819050919050565b600062000236620002306200022a8462000201565b6200020b565b62000201565b9050919050565b6000819050919050565b620002528362000215565b6200026a62000261826200023d565b848454620001ab565b825550505050565b600090565b6200028162000272565b6200028e81848462000247565b505050565b5b81811015620002b657620002aa60008262000277565b60018101905062000294565b5050565b601f8211156200030557620002cf8162000179565b620002da846200018e565b81016020851015620002ea578190505b62000302620002f9856200018e565b83018262000293565b50505b505050565b600082821c905092915050565b60006200032a600019846008026200030a565b1980831691505092915050565b600062000345838362000317565b9150826002028217905092915050565b6200036082620000db565b67ffffffffffffffff8111156200037c576200037b620000e6565b5b62000388825462000144565b62000395828285620002ba565b600060209050601f831160018114620003cd5760008415620003b8578287015190505b620003c4858262000337565b86555062000434565b601f198416620003dd8662000179565b60005b828110156200040757848901518255600182019150602085019450602081019050620003e0565b8683101562000427578489015162000423601f89168262000317565b8355505b6001600288020188555050505b505050505050565b614157806200044c6000396000f3fe60806040526004361061012a5760003560e01c806372b3b620116100ab578063ae677aa31161006f578063ae677aa3146103ea578063b88d4fde14610406578063be9af5361461042f578063c18763f71461044b578063c87b56dd14610476578063e985e9c5146104b35761012a565b806372b3b6201461031f57806385535b251461034f5780638fafd0211461036b57806395d89b4114610396578063a22cb465146103c15761012a565b806323b872dd116100f257806323b872dd1461022857806342842e0e1461025157806345f8fa801461027a5780636352211e146102a557806370a08231146102e25761012a565b806301ffc9a71461012f57806306fdde031461016c578063081812fc14610197578063095ea7b3146101d457806312e85585146101fd575b600080fd5b34801561013b57600080fd5b5061015660048036038101906101519190612a67565b6104f0565b6040516101639190612aaf565b60405180910390f35b34801561017857600080fd5b506101816105d2565b60405161018e9190612b5a565b60405180910390f35b3480156101a357600080fd5b506101be60048036038101906101b99190612bb2565b610664565b6040516101cb9190612c20565b60405180910390f35b3480156101e057600080fd5b506101fb60048036038101906101f69190612c67565b6106aa565b005b34801561020957600080fd5b506102126107c1565b60405161021f9190612cb6565b60405180910390f35b34801561023457600080fd5b5061024f600480360381019061024a9190612cd1565b6107cb565b005b34801561025d57600080fd5b5061027860048036038101906102739190612cd1565b61082b565b005b34801561028657600080fd5b5061028f61084b565b60405161029c9190612e7a565b60405180910390f35b3480156102b157600080fd5b506102cc60048036038101906102c79190612bb2565b610b37565b6040516102d99190612c20565b60405180910390f35b3480156102ee57600080fd5b5061030960048036038101906103049190612e9c565b610bbd565b6040516103169190612cb6565b60405180910390f35b61033960048036038101906103349190612ffe565b610c74565b6040516103469190612cb6565b60405180910390f35b6103696004803603810190610364919061305a565b610cb6565b005b34801561037757600080fd5b50610380610eab565b60405161038d9190612e7a565b60405180910390f35b3480156103a257600080fd5b506103ab611113565b6040516103b89190612b5a565b60405180910390f35b3480156103cd57600080fd5b506103e860048036038101906103e391906130c6565b6111a5565b005b61040460048036038101906103ff9190612bb2565b6111bb565b005b34801561041257600080fd5b5061042d600480360381019061042891906131a7565b6111c5565b005b61044960048036038101906104449190612bb2565b611227565b005b34801561045757600080fd5b5061046061145f565b60405161046d9190612e7a565b60405180910390f35b34801561048257600080fd5b5061049d60048036038101906104989190612bb2565b61174b565b6040516104aa9190612b5a565b60405180910390f35b3480156104bf57600080fd5b506104da60048036038101906104d5919061322a565b61185d565b6040516104e79190612aaf565b60405180910390f35b60007f80ac58cd000000000000000000000000000000000000000000000000000000007bffffffffffffffffffffffffffffffffffffffffffffffffffffffff1916827bffffffffffffffffffffffffffffffffffffffffffffffffffffffff191614806105bb57507f5b5e139f000000000000000000000000000000000000000000000000000000007bffffffffffffffffffffffffffffffffffffffffffffffffffffffff1916827bffffffffffffffffffffffffffffffffffffffffffffffffffffffff1916145b806105cb57506105ca826118f1565b5b9050919050565b6060600080546105e190613299565b80601f016020809104026020016040519081016040528092919081815260200182805461060d90613299565b801561065a5780601f1061062f5761010080835404028352916020019161065a565b820191906000526020600020905b81548152906001019060200180831161063d57829003601f168201915b5050505050905090565b600061066f8261195b565b6004600083815260200190815260200160002060009054906101000a900473ffffffffffffffffffffffffffffffffffffffff169050919050565b60006106b582610b37565b90508073ffffffffffffffffffffffffffffffffffffffff168373ffffffffffffffffffffffffffffffffffffffff1603610725576040517f08c379a000000000000000000000000000000000000000000000000000000000815260040161071c9061333c565b60405180910390fd5b8073ffffffffffffffffffffffffffffffffffffffff166107446119a6565b73ffffffffffffffffffffffffffffffffffffffff16148061077357506107728161076d6119a6565b61185d565b5b6107b2576040517f08c379a00000000000000000000000000000000000000000000000000000000081526004016107a9906133ce565b60405180910390fd5b6107bc83836119ae565b505050565b6000600954905090565b6107dc6107d66119a6565b82611a67565b61081b576040517f08c379a000000000000000000000000000000000000000000000000000000000815260040161081290613460565b60405180910390fd5b610826838383611afc565b505050565b610846838383604051806020016040528060008152506111c5565b505050565b606060006108596007611df5565b905060008060005b83811015610901573373ffffffffffffffffffffffffffffffffffffffff16600b600060018461089191906134af565b815260200190815260200160002060010160009054906101000a900473ffffffffffffffffffffffffffffffffffffffff1673ffffffffffffffffffffffffffffffffffffffff16036108ee576001836108eb91906134af565b92505b80806108f9906134e3565b915050610861565b5060008267ffffffffffffffff81111561091e5761091d612ed3565b5b60405190808252806020026020018201604052801561095757816020015b61094461299e565b81526020019060019003908161093c5790505b50905060005b84811015610b2c573373ffffffffffffffffffffffffffffffffffffffff16600b600060018461098d91906134af565b815260200190815260200160002060010160009054906101000a900473ffffffffffffffffffffffffffffffffffffffff1673ffffffffffffffffffffffffffffffffffffffff1603610b195760006001826109e991906134af565b90506000600b60008381526020019081526020016000209050806040518060a0016040529081600082015481526020016001820160009054906101000a900473ffffffffffffffffffffffffffffffffffffffff1673ffffffffffffffffffffffffffffffffffffffff1673ffffffffffffffffffffffffffffffffffffffff1681526020016002820160009054906101000a900473ffffffffffffffffffffffffffffffffffffffff1673ffffffffffffffffffffffffffffffffffffffff1673ffffffffffffffffffffffffffffffffffffffff168152602001600382015481526020016004820160009054906101000a900460ff161515151581525050848681518110610afc57610afb61352b565b5b6020026020010181905250600185610b1491906134af565b945050505b8080610b24906134e3565b91505061095d565b508094505050505090565b600080610b4383611e03565b9050600073ffffffffffffffffffffffffffffffffffffffff168173ffffffffffffffffffffffffffffffffffffffff1603610bb4576040517f08c379a0000000000000000000000000000000000000000000000000000000008152600401610bab906135a6565b60405180910390fd5b80915050919050565b60008073ffffffffffffffffffffffffffffffffffffffff168273ffffffffffffffffffffffffffffffffffffffff1603610c2d576040517f08c379a0000000000000000000000000000000000000000000000000000000008152600401610c2490613638565b60405180910390fd5b600360008373ffffffffffffffffffffffffffffffffffffffff1673ffffffffffffffffffffffffffffffffffffffff168152602001908152602001600020549050919050565b6000610c806007611e40565b6000610c8c6007611df5565b9050610c983382611e56565b610ca28185612073565b610cac81846120e0565b8091505092915050565b3373ffffffffffffffffffffffffffffffffffffffff16600b600084815260200190815260200160002060020160009054906101000a900473ffffffffffffffffffffffffffffffffffffffff1673ffffffffffffffffffffffffffffffffffffffff1614610d5a576040517f08c379a0000000000000000000000000000000000000000000000000000000008152600401610d51906136a4565b60405180910390fd5b6009543414610d9e576040517f08c379a0000000000000000000000000000000000000000000000000000000008152600401610d9590613710565b60405180910390fd5b6000600b600084815260200190815260200160002060040160006101000a81548160ff02191690831515021790555080600b60008481526020019081526020016000206003018190555033600b600084815260200190815260200160002060010160006101000a81548173ffffffffffffffffffffffffffffffffffffffff021916908373ffffffffffffffffffffffffffffffffffffffff16021790555030600b600084815260200190815260200160002060020160006101000a81548173ffffffffffffffffffffffffffffffffffffffff021916908373ffffffffffffffffffffffffffffffffffffffff160217905550610e9c60086122e3565b610ea7333084611afc565b5050565b60606000610eb96007611df5565b90506000610ec76008611df5565b610ed16007611df5565b610edb9190613730565b90506000808267ffffffffffffffff811115610efa57610ef9612ed3565b5b604051908082528060200260200182016040528015610f3357816020015b610f2061299e565b815260200190600190039081610f185790505b50905060005b84811015611108573073ffffffffffffffffffffffffffffffffffffffff16600b6000600184610f6991906134af565b815260200190815260200160002060020160009054906101000a900473ffffffffffffffffffffffffffffffffffffffff1673ffffffffffffffffffffffffffffffffffffffff16036110f5576000600182610fc591906134af565b90506000600b60008381526020019081526020016000209050806040518060a0016040529081600082015481526020016001820160009054906101000a900473ffffffffffffffffffffffffffffffffffffffff1673ffffffffffffffffffffffffffffffffffffffff1673ffffffffffffffffffffffffffffffffffffffff1681526020016002820160009054906101000a900473ffffffffffffffffffffffffffffffffffffffff1673ffffffffffffffffffffffffffffffffffffffff1673ffffffffffffffffffffffffffffffffffffffff168152602001600382015481526020016004820160009054906101000a900460ff1615151515815250508486815181106110d8576110d761352b565b5b60200260200101819052506001856110f091906134af565b945050505b8080611100906134e3565b915050610f39565b508094505050505090565b60606001805461112290613299565b80601f016020809104026020016040519081016040528092919081815260200182805461114e90613299565b801561119b5780601f106111705761010080835404028352916020019161119b565b820191906000526020600020905b81548152906001019060200180831161117e57829003601f168201915b5050505050905090565b6111b76111b06119a6565b838361233f565b5050565b8060098190555050565b6111d66111d06119a6565b83611a67565b611215576040517f08c379a000000000000000000000000000000000000000000000000000000000815260040161120c90613460565b60405180910390fd5b611221848484846124ab565b50505050565b6000600b6000838152602001908152602001600020600301549050803414611284576040517f08c379a000000000000000000000000000000000000000000000000000000000815260040161127b906137d6565b60405180910390fd5b33600b600084815260200190815260200160002060020160006101000a81548173ffffffffffffffffffffffffffffffffffffffff021916908373ffffffffffffffffffffffffffffffffffffffff1602179055506001600b600084815260200190815260200160002060040160006101000a81548160ff0219169083151502179055506000600b600084815260200190815260200160002060010160006101000a81548173ffffffffffffffffffffffffffffffffffffffff021916908373ffffffffffffffffffffffffffffffffffffffff1602179055506113686008611e40565b611373303384611afc565b600a60009054906101000a900473ffffffffffffffffffffffffffffffffffffffff1673ffffffffffffffffffffffffffffffffffffffff166108fc6009549081150290604051600060405180830381858888f193505050501580156113dd573d6000803e3d6000fd5b50600b600083815260200190815260200160002060010160009054906101000a900473ffffffffffffffffffffffffffffffffffffffff1673ffffffffffffffffffffffffffffffffffffffff166108fc349081150290604051600060405180830381858888f1935050505015801561145a573d6000803e3d6000fd5b505050565b6060600061146d6007611df5565b905060008060005b83811015611515573373ffffffffffffffffffffffffffffffffffffffff16600b60006001846114a591906134af565b815260200190815260200160002060020160009054906101000a900473ffffffffffffffffffffffffffffffffffffffff1673ffffffffffffffffffffffffffffffffffffffff1603611502576001836114ff91906134af565b92505b808061150d906134e3565b915050611475565b5060008267ffffffffffffffff81111561153257611531612ed3565b5b60405190808252806020026020018201604052801561156b57816020015b61155861299e565b8152602001906001900390816115505790505b50905060005b84811015611740573373ffffffffffffffffffffffffffffffffffffffff16600b60006001846115a191906134af565b815260200190815260200160002060020160009054906101000a900473ffffffffffffffffffffffffffffffffffffffff1673ffffffffffffffffffffffffffffffffffffffff160361172d5760006001826115fd91906134af565b90506000600b60008381526020019081526020016000209050806040518060a0016040529081600082015481526020016001820160009054906101000a900473ffffffffffffffffffffffffffffffffffffffff1673ffffffffffffffffffffffffffffffffffffffff1673ffffffffffffffffffffffffffffffffffffffff1681526020016002820160009054906101000a900473ffffffffffffffffffffffffffffffffffffffff1673ffffffffffffffffffffffffffffffffffffffff1673ffffffffffffffffffffffffffffffffffffffff168152602001600382015481526020016004820160009054906101000a900460ff1615151515815250508486815181106117105761170f61352b565b5b602002602001018190525060018561172891906134af565b945050505b8080611738906134e3565b915050611571565b508094505050505090565b60606117568261195b565b600060066000848152602001908152602001600020805461177690613299565b80601f01602080910402602001604051908101604052809291908181526020018280546117a290613299565b80156117ef5780601f106117c4576101008083540402835291602001916117ef565b820191906000526020600020905b8154815290600101906020018083116117d257829003601f168201915b505050505090506000611800612507565b90506000815103611815578192505050611858565b60008251111561184a578082604051602001611832929190613832565b60405160208183030381529060405292505050611858565b6118538461251e565b925050505b919050565b6000600560008473ffffffffffffffffffffffffffffffffffffffff1673ffffffffffffffffffffffffffffffffffffffff16815260200190815260200160002060008373ffffffffffffffffffffffffffffffffffffffff1673ffffffffffffffffffffffffffffffffffffffff16815260200190815260200160002060009054906101000a900460ff16905092915050565b60007f01ffc9a7000000000000000000000000000000000000000000000000000000007bffffffffffffffffffffffffffffffffffffffffffffffffffffffff1916827bffffffffffffffffffffffffffffffffffffffffffffffffffffffff1916149050919050565b61196481612586565b6119a3576040517f08c379a000000000000000000000000000000000000000000000000000000000815260040161199a906135a6565b60405180910390fd5b50565b600033905090565b816004600083815260200190815260200160002060006101000a81548173ffffffffffffffffffffffffffffffffffffffff021916908373ffffffffffffffffffffffffffffffffffffffff160217905550808273ffffffffffffffffffffffffffffffffffffffff16611a2183610b37565b73ffffffffffffffffffffffffffffffffffffffff167f8c5be1e5ebec7d5bd14f71427d1e84f3dd0314c0f7b2291e5b200ac8c7c3b92560405160405180910390a45050565b600080611a7383610b37565b90508073ffffffffffffffffffffffffffffffffffffffff168473ffffffffffffffffffffffffffffffffffffffff161480611ab55750611ab4818561185d565b5b80611af357508373ffffffffffffffffffffffffffffffffffffffff16611adb84610664565b73ffffffffffffffffffffffffffffffffffffffff16145b91505092915050565b8273ffffffffffffffffffffffffffffffffffffffff16611b1c82610b37565b73ffffffffffffffffffffffffffffffffffffffff1614611b72576040517f08c379a0000000000000000000000000000000000000000000000000000000008152600401611b69906138c8565b60405180910390fd5b600073ffffffffffffffffffffffffffffffffffffffff168273ffffffffffffffffffffffffffffffffffffffff1603611be1576040517f08c379a0000000000000000000000000000000000000000000000000000000008152600401611bd89061395a565b60405180910390fd5b611bee83838360016125c7565b8273ffffffffffffffffffffffffffffffffffffffff16611c0e82610b37565b73ffffffffffffffffffffffffffffffffffffffff1614611c64576040517f08c379a0000000000000000000000000000000000000000000000000000000008152600401611c5b906138c8565b60405180910390fd5b6004600082815260200190815260200160002060006101000a81549073ffffffffffffffffffffffffffffffffffffffff02191690556001600360008573ffffffffffffffffffffffffffffffffffffffff1673ffffffffffffffffffffffffffffffffffffffff168152602001908152602001600020600082825403925050819055506001600360008473ffffffffffffffffffffffffffffffffffffffff1673ffffffffffffffffffffffffffffffffffffffff16815260200190815260200160002060008282540192505081905550816002600083815260200190815260200160002060006101000a81548173ffffffffffffffffffffffffffffffffffffffff021916908373ffffffffffffffffffffffffffffffffffffffff160217905550808273ffffffffffffffffffffffffffffffffffffffff168473ffffffffffffffffffffffffffffffffffffffff167fddf252ad1be2c89b69c2b068fc378daa952ba7f163c4a11628f55a4df523b3ef60405160405180910390a4611df083838360016125cd565b505050565b600081600001549050919050565b60006002600083815260200190815260200160002060009054906101000a900473ffffffffffffffffffffffffffffffffffffffff169050919050565b6001816000016000828254019250508190555050565b600073ffffffffffffffffffffffffffffffffffffffff168273ffffffffffffffffffffffffffffffffffffffff1603611ec5576040517f08c379a0000000000000000000000000000000000000000000000000000000008152600401611ebc906139c6565b60405180910390fd5b611ece81612586565b15611f0e576040517f08c379a0000000000000000000000000000000000000000000000000000000008152600401611f0590613a32565b60405180910390fd5b611f1c6000838360016125c7565b611f2581612586565b15611f65576040517f08c379a0000000000000000000000000000000000000000000000000000000008152600401611f5c90613a32565b60405180910390fd5b6001600360008473ffffffffffffffffffffffffffffffffffffffff1673ffffffffffffffffffffffffffffffffffffffff16815260200190815260200160002060008282540192505081905550816002600083815260200190815260200160002060006101000a81548173ffffffffffffffffffffffffffffffffffffffff021916908373ffffffffffffffffffffffffffffffffffffffff160217905550808273ffffffffffffffffffffffffffffffffffffffff16600073ffffffffffffffffffffffffffffffffffffffff167fddf252ad1be2c89b69c2b068fc378daa952ba7f163c4a11628f55a4df523b3ef60405160405180910390a461206f6000838360016125cd565b5050565b61207c82612586565b6120bb576040517f08c379a00000000000000000000000000000000000000000000000000000000081526004016120b290613ac4565b60405180910390fd5b806006600084815260200190815260200160002090816120db9190613c90565b505050565b60008111612123576040517f08c379a000000000000000000000000000000000000000000000000000000000815260040161211a90613dae565b60405180910390fd5b6009543414612167576040517f08c379a000000000000000000000000000000000000000000000000000000000815260040161215e90613e40565b60405180910390fd5b6040518060a001604052808381526020013373ffffffffffffffffffffffffffffffffffffffff1681526020013073ffffffffffffffffffffffffffffffffffffffff16815260200182815260200160001515815250600b60008481526020019081526020016000206000820151816000015560208201518160010160006101000a81548173ffffffffffffffffffffffffffffffffffffffff021916908373ffffffffffffffffffffffffffffffffffffffff16021790555060408201518160020160006101000a81548173ffffffffffffffffffffffffffffffffffffffff021916908373ffffffffffffffffffffffffffffffffffffffff1602179055506060820151816003015560808201518160040160006101000a81548160ff0219169083151502179055509050506122a0333084611afc565b817fdebdb32cb5230ab727c9c361b16fdb2015df225c10e6a3e7f60ecd5dc5be451633308460006040516122d79493929190613e60565b60405180910390a25050565b6000816000015490506000811161232f576040517f08c379a000000000000000000000000000000000000000000000000000000000815260040161232690613ef1565b60405180910390fd5b6001810382600001819055505050565b8173ffffffffffffffffffffffffffffffffffffffff168373ffffffffffffffffffffffffffffffffffffffff16036123ad576040517f08c379a00000000000000000000000000000000000000000000000000000000081526004016123a490613f5d565b60405180910390fd5b80600560008573ffffffffffffffffffffffffffffffffffffffff1673ffffffffffffffffffffffffffffffffffffffff16815260200190815260200160002060008473ffffffffffffffffffffffffffffffffffffffff1673ffffffffffffffffffffffffffffffffffffffff16815260200190815260200160002060006101000a81548160ff0219169083151502179055508173ffffffffffffffffffffffffffffffffffffffff168373ffffffffffffffffffffffffffffffffffffffff167f17307eab39ab6107e8899845ad3d59bd9653f200f220920489ca2b5937696c318360405161249e9190612aaf565b60405180910390a3505050565b6124b6848484611afc565b6124c2848484846125d3565b612501576040517f08c379a00000000000000000000000000000000000000000000000000000000081526004016124f890613fef565b60405180910390fd5b50505050565b606060405180602001604052806000815250905090565b60606125298261195b565b6000612533612507565b90506000815111612553576040518060200160405280600081525061257e565b8061255d8461275a565b60405160200161256e929190613832565b6040516020818303038152906040525b915050919050565b60008073ffffffffffffffffffffffffffffffffffffffff166125a883611e03565b73ffffffffffffffffffffffffffffffffffffffff1614159050919050565b50505050565b50505050565b60006125f48473ffffffffffffffffffffffffffffffffffffffff16612828565b1561274d578373ffffffffffffffffffffffffffffffffffffffff1663150b7a0261261d6119a6565b8786866040518563ffffffff1660e01b815260040161263f9493929190614064565b6020604051808303816000875af192505050801561267b57506040513d601f19601f8201168201806040525081019061267891906140c5565b60015b6126fd573d80600081146126ab576040519150601f19603f3d011682016040523d82523d6000602084013e6126b0565b606091505b5060008151036126f5576040517f08c379a00000000000000000000000000000000000000000000000000000000081526004016126ec90613fef565b60405180910390fd5b805181602001fd5b63150b7a0260e01b7bffffffffffffffffffffffffffffffffffffffffffffffffffffffff1916817bffffffffffffffffffffffffffffffffffffffffffffffffffffffff191614915050612752565b600190505b949350505050565b6060600060016127698461284b565b01905060008167ffffffffffffffff81111561278857612787612ed3565b5b6040519080825280601f01601f1916602001820160405280156127ba5781602001600182028036833780820191505090505b509050600082602001820190505b60011561281d578080600190039150507f3031323334353637383961626364656600000000000000000000000000000000600a86061a8153600a8581612811576128106140f2565b5b049450600085036127c8575b819350505050919050565b6000808273ffffffffffffffffffffffffffffffffffffffff163b119050919050565b600080600090507a184f03e93ff9f4daa797ed6e38ed64bf6a1f01000000000000000083106128a9577a184f03e93ff9f4daa797ed6e38ed64bf6a1f010000000000000000838161289f5761289e6140f2565b5b0492506040810190505b6d04ee2d6d415b85acef810000000083106128e6576d04ee2d6d415b85acef810000000083816128dc576128db6140f2565b5b0492506020810190505b662386f26fc10000831061291557662386f26fc10000838161290b5761290a6140f2565b5b0492506010810190505b6305f5e100831061293e576305f5e1008381612934576129336140f2565b5b0492506008810190505b6127108310612963576127108381612959576129586140f2565b5b0492506004810190505b60648310612986576064838161297c5761297b6140f2565b5b0492506002810190505b600a8310612995576001810190505b80915050919050565b6040518060a0016040528060008152602001600073ffffffffffffffffffffffffffffffffffffffff168152602001600073ffffffffffffffffffffffffffffffffffffffff168152602001600081526020016000151581525090565b6000604051905090565b600080fd5b600080fd5b60007fffffffff0000000000000000000000000000000000000000000000000000000082169050919050565b612a4481612a0f565b8114612a4f57600080fd5b50565b600081359050612a6181612a3b565b92915050565b600060208284031215612a7d57612a7c612a05565b5b6000612a8b84828501612a52565b91505092915050565b60008115159050919050565b612aa981612a94565b82525050565b6000602082019050612ac46000830184612aa0565b92915050565b600081519050919050565b600082825260208201905092915050565b60005b83811015612b04578082015181840152602081019050612ae9565b60008484015250505050565b6000601f19601f8301169050919050565b6000612b2c82612aca565b612b368185612ad5565b9350612b46818560208601612ae6565b612b4f81612b10565b840191505092915050565b60006020820190508181036000830152612b748184612b21565b905092915050565b6000819050919050565b612b8f81612b7c565b8114612b9a57600080fd5b50565b600081359050612bac81612b86565b92915050565b600060208284031215612bc857612bc7612a05565b5b6000612bd684828501612b9d565b91505092915050565b600073ffffffffffffffffffffffffffffffffffffffff82169050919050565b6000612c0a82612bdf565b9050919050565b612c1a81612bff565b82525050565b6000602082019050612c356000830184612c11565b92915050565b612c4481612bff565b8114612c4f57600080fd5b50565b600081359050612c6181612c3b565b92915050565b60008060408385031215612c7e57612c7d612a05565b5b6000612c8c85828601612c52565b9250506020612c9d85828601612b9d565b9150509250929050565b612cb081612b7c565b82525050565b6000602082019050612ccb6000830184612ca7565b92915050565b600080600060608486031215612cea57612ce9612a05565b5b6000612cf886828701612c52565b9350506020612d0986828701612c52565b9250506040612d1a86828701612b9d565b9150509250925092565b600081519050919050565b600082825260208201905092915050565b6000819050602082019050919050565b612d5981612b7c565b82525050565b6000612d6a82612bdf565b9050919050565b612d7a81612d5f565b82525050565b612d8981612a94565b82525050565b60a082016000820151612da56000850182612d50565b506020820151612db86020850182612d71565b506040820151612dcb6040850182612d71565b506060820151612dde6060850182612d50565b506080820151612df16080850182612d80565b50505050565b6000612e038383612d8f565b60a08301905092915050565b6000602082019050919050565b6000612e2782612d24565b612e318185612d2f565b9350612e3c83612d40565b8060005b83811015612e6d578151612e548882612df7565b9750612e5f83612e0f565b925050600181019050612e40565b5085935050505092915050565b60006020820190508181036000830152612e948184612e1c565b905092915050565b600060208284031215612eb257612eb1612a05565b5b6000612ec084828501612c52565b91505092915050565b600080fd5b600080fd5b7f4e487b7100000000000000000000000000000000000000000000000000000000600052604160045260246000fd5b612f0b82612b10565b810181811067ffffffffffffffff82111715612f2a57612f29612ed3565b5b80604052505050565b6000612f3d6129fb565b9050612f498282612f02565b919050565b600067ffffffffffffffff821115612f6957612f68612ed3565b5b612f7282612b10565b9050602081019050919050565b82818337600083830152505050565b6000612fa1612f9c84612f4e565b612f33565b905082815260208101848484011115612fbd57612fbc612ece565b5b612fc8848285612f7f565b509392505050565b600082601f830112612fe557612fe4612ec9565b5b8135612ff5848260208601612f8e565b91505092915050565b6000806040838503121561301557613014612a05565b5b600083013567ffffffffffffffff81111561303357613032612a0a565b5b61303f85828601612fd0565b925050602061305085828601612b9d565b9150509250929050565b6000806040838503121561307157613070612a05565b5b600061307f85828601612b9d565b925050602061309085828601612b9d565b9150509250929050565b6130a381612a94565b81146130ae57600080fd5b50565b6000813590506130c08161309a565b92915050565b600080604083850312156130dd576130dc612a05565b5b60006130eb85828601612c52565b92505060206130fc858286016130b1565b9150509250929050565b600067ffffffffffffffff82111561312157613120612ed3565b5b61312a82612b10565b9050602081019050919050565b600061314a61314584613106565b612f33565b90508281526020810184848401111561316657613165612ece565b5b613171848285612f7f565b509392505050565b600082601f83011261318e5761318d612ec9565b5b813561319e848260208601613137565b91505092915050565b600080600080608085870312156131c1576131c0612a05565b5b60006131cf87828801612c52565b94505060206131e087828801612c52565b93505060406131f187828801612b9d565b925050606085013567ffffffffffffffff81111561321257613211612a0a565b5b61321e87828801613179565b91505092959194509250565b6000806040838503121561324157613240612a05565b5b600061324f85828601612c52565b925050602061326085828601612c52565b9150509250929050565b7f4e487b7100000000000000000000000000000000000000000000000000000000600052602260045260246000fd5b600060028204905060018216806132b157607f821691505b6020821081036132c4576132c361326a565b5b50919050565b7f4552433732313a20617070726f76616c20746f2063757272656e74206f776e6560008201527f7200000000000000000000000000000000000000000000000000000000000000602082015250565b6000613326602183612ad5565b9150613331826132ca565b604082019050919050565b6000602082019050818103600083015261335581613319565b9050919050565b7f4552433732313a20617070726f76652063616c6c6572206973206e6f7420746f60008201527f6b656e206f776e6572206f7220617070726f76656420666f7220616c6c000000602082015250565b60006133b8603d83612ad5565b91506133c38261335c565b604082019050919050565b600060208201905081810360008301526133e7816133ab565b9050919050565b7f4552433732313a2063616c6c6572206973206e6f7420746f6b656e206f776e6560008201527f72206f7220617070726f76656400000000000000000000000000000000000000602082015250565b600061344a602d83612ad5565b9150613455826133ee565b604082019050919050565b600060208201905081810360008301526134798161343d565b9050919050565b7f4e487b7100000000000000000000000000000000000000000000000000000000600052601160045260246000fd5b60006134ba82612b7c565b91506134c583612b7c565b92508282019050808211156134dd576134dc613480565b5b92915050565b60006134ee82612b7c565b91507fffffffffffffffffffffffffffffffffffffffffffffffffffffffffffffffff82036135205761351f613480565b5b600182019050919050565b7f4e487b7100000000000000000000000000000000000000000000000000000000600052603260045260246000fd5b7f4552433732313a20696e76616c696420746f6b656e2049440000000000000000600082015250565b6000613590601883612ad5565b915061359b8261355a565b602082019050919050565b600060208201905081810360008301526135bf81613583565b9050919050565b7f4552433732313a2061646472657373207a65726f206973206e6f74206120766160008201527f6c6964206f776e65720000000000000000000000000000000000000000000000602082015250565b6000613622602983612ad5565b915061362d826135c6565b604082019050919050565b6000602082019050818103600083015261365181613615565b9050919050565b7f6e6f74206974656d206f776e6572000000000000000000000000000000000000600082015250565b600061368e600e83612ad5565b915061369982613658565b602082019050919050565b600060208201905081810360008301526136bd81613681565b9050919050565b7f4e6f206665657320000000000000000000000000000000000000000000000000600082015250565b60006136fa600883612ad5565b9150613705826136c4565b602082019050919050565b60006020820190508181036000830152613729816136ed565b9050919050565b600061373b82612b7c565b915061374683612b7c565b925082820390508181111561375e5761375d613480565b5b92915050565b7f4e6f74207468652073616d6520616d6f756e742061732077686174207468652060008201527f62757965722069732061736b696e6720666f7220000000000000000000000000602082015250565b60006137c0603483612ad5565b91506137cb82613764565b604082019050919050565b600060208201905081810360008301526137ef816137b3565b9050919050565b600081905092915050565b600061380c82612aca565b61381681856137f6565b9350613826818560208601612ae6565b80840191505092915050565b600061383e8285613801565b915061384a8284613801565b91508190509392505050565b7f4552433732313a207472616e736665722066726f6d20696e636f72726563742060008201527f6f776e6572000000000000000000000000000000000000000000000000000000602082015250565b60006138b2602583612ad5565b91506138bd82613856565b604082019050919050565b600060208201905081810360008301526138e1816138a5565b9050919050565b7f4552433732313a207472616e7366657220746f20746865207a65726f2061646460008201527f7265737300000000000000000000000000000000000000000000000000000000602082015250565b6000613944602483612ad5565b915061394f826138e8565b604082019050919050565b6000602082019050818103600083015261397381613937565b9050919050565b7f4552433732313a206d696e7420746f20746865207a65726f2061646472657373600082015250565b60006139b0602083612ad5565b91506139bb8261397a565b602082019050919050565b600060208201905081810360008301526139df816139a3565b9050919050565b7f4552433732313a20746f6b656e20616c7265616479206d696e74656400000000600082015250565b6000613a1c601c83612ad5565b9150613a27826139e6565b602082019050919050565b60006020820190508181036000830152613a4b81613a0f565b9050919050565b7f45524337323155524953746f726167653a2055524920736574206f66206e6f6e60008201527f6578697374656e7420746f6b656e000000000000000000000000000000000000602082015250565b6000613aae602e83612ad5565b9150613ab982613a52565b604082019050919050565b60006020820190508181036000830152613add81613aa1565b9050919050565b60008190508160005260206000209050919050565b60006020601f8301049050919050565b600082821b905092915050565b600060088302613b467fffffffffffffffffffffffffffffffffffffffffffffffffffffffffffffffff82613b09565b613b508683613b09565b95508019841693508086168417925050509392505050565b6000819050919050565b6000613b8d613b88613b8384612b7c565b613b68565b612b7c565b9050919050565b6000819050919050565b613ba783613b72565b613bbb613bb382613b94565b848454613b16565b825550505050565b600090565b613bd0613bc3565b613bdb818484613b9e565b505050565b5b81811015613bff57613bf4600082613bc8565b600181019050613be1565b5050565b601f821115613c4457613c1581613ae4565b613c1e84613af9565b81016020851015613c2d578190505b613c41613c3985613af9565b830182613be0565b50505b505050565b600082821c905092915050565b6000613c6760001984600802613c49565b1980831691505092915050565b6000613c808383613c56565b9150826002028217905092915050565b613c9982612aca565b67ffffffffffffffff811115613cb257613cb1612ed3565b5b613cbc8254613299565b613cc7828285613c03565b600060209050601f831160018114613cfa5760008415613ce8578287015190505b613cf28582613c74565b865550613d5a565b601f198416613d0886613ae4565b60005b82811015613d3057848901518255600182019150602085019450602081019050613d0b565b86831015613d4d5784890151613d49601f891682613c56565b8355505b6001600288020188555050505b505050505050565b7f5072696365206d757374206265206174206c6561737420310000000000000000600082015250565b6000613d98601883612ad5565b9150613da382613d62565b602082019050919050565b60006020820190508181036000830152613dc781613d8b565b9050919050565b7f7072696365206d75737420626520657175616c20746f206c697374696e67207060008201527f7269636500000000000000000000000000000000000000000000000000000000602082015250565b6000613e2a602483612ad5565b9150613e3582613dce565b604082019050919050565b60006020820190508181036000830152613e5981613e1d565b9050919050565b6000608082019050613e756000830187612c11565b613e826020830186612c11565b613e8f6040830185612ca7565b613e9c6060830184612aa0565b95945050505050565b7f436f756e7465723a2064656372656d656e74206f766572666c6f770000000000600082015250565b6000613edb601b83612ad5565b9150613ee682613ea5565b602082019050919050565b60006020820190508181036000830152613f0a81613ece565b9050919050565b7f4552433732313a20617070726f766520746f2063616c6c657200000000000000600082015250565b6000613f47601983612ad5565b9150613f5282613f11565b602082019050919050565b60006020820190508181036000830152613f7681613f3a565b9050919050565b7f4552433732313a207472616e7366657220746f206e6f6e20455243373231526560008201527f63656976657220696d706c656d656e7465720000000000000000000000000000602082015250565b6000613fd9603283612ad5565b9150613fe482613f7d565b604082019050919050565b6000602082019050818103600083015261400881613fcc565b9050919050565b600081519050919050565b600082825260208201905092915050565b60006140368261400f565b614040818561401a565b9350614050818560208601612ae6565b61405981612b10565b840191505092915050565b60006080820190506140796000830187612c11565b6140866020830186612c11565b6140936040830185612ca7565b81810360608301526140a5818461402b565b905095945050505050565b6000815190506140bf81612a3b565b92915050565b6000602082840312156140db576140da612a05565b5b60006140e9848285016140b0565b91505092915050565b7f4e487b7100000000000000000000000000000000000000000000000000000000600052601260045260246000fdfea2646970667358221220a1e53dc341d1a875037d10d8c328c4a288a072276835d8465f06e5ae3b3a026d64736f6c63430008120033",
  "linkReferences": {},
  "deployedLinkReferences": {}
}